:020000040800F2
:1000000000280020D1080008090800080F0800088F
:10001000150800081B08000821080008000000005F
:100020000000000000000000000000002708000899
:1000300033080008000000003F0800084B080008D3
:100040001909000819090008190900081909000808
:1000500019090008190900081909000819090008F8
:1000600019090008190900081909000819090008E8
:1000700019090008190900081909000819090008D8
:1000800019090008190900081909000819090008C8
:1000900019090008190900081909000819090008B8
:1000A00019090008190900081909000819090008A8
:1000B00019090008190900080000000019090008C2
:1000C00019090008000000000000000019090008DC
:1000D00000000000190900081909000800000000CC
:1000E0001909000819090008190900080000000092
:1000F0000000000000000000000000000000000000
:0C01000000000000000000005FF808F1A3
:10010C0010B5054C237833B9044B13B10448AFF345
:10011C0000800123237010BD70000020000000003F
:10012C007020000808B5034B1BB103490348AFF31B
:10013C00008008BD00000000740000207020000842
:10014C00034613F8012B002AFBD1181A013870470B
:10015C0080B586B002AF7860084611461A46034651
:10016C00FB700B46BB7013467B7007F10803002233
:10017C001A605A607B681A4607F1080303CB1060BB
:10018C00516000224FF400414D4800F0BEFE0022A9
:10019C004FF480414A4800F0B8FE00224FF4005161
:1001AC00474800F0B2FE00224FF48051444800F062
:1001BC00ACFE00220821424800F0A7FE00224FF4BA
:1001CC008051404800F0A1FE00224FF400413D4810
:1001DC0000F09BFEBB78012B06D97B681B7843F0A3
:1001EC000803DAB27B681A707B68BA78DA70FA782E
:1001FC00FB7840330093134640220021786800F0CE
:10020C0045F97B78002B09D0BB78012B06D17B6894
:10021C001B7843F00403DAB27B681A70322000F0CA
:10022C00D9FB00220821264800F06FFE00224FF473
:10023C008051244800F069FE00224FF4004121480F
:10024C0000F063FE7B681B78002B14D0032000F0B9
:10025C00D1F8052000F0BEFB032000F0CBF8052000
:10026C0000F0B8FB032000F0C5F8052000F0B2FB4D
:10027C00022000F0BFF87B681B7843F02003DBB250
:10028C001946786800F0F2F8012000F0A3FB7B68B7
:10029C0004225A70786800F048F8786800F036F854
:1002AC007B6802229A707B689B7843F00403DBB274
:1002BC001946786800F0DAF800BF1037BD4680BDEB
:1002CC00000C01400008014080B584B000AF78609C
:1002DC0039603868FFF734FFB8600023FB730CE01B
:1002EC00FB7B3A68134493F90030DBB2194678680B
:1002FC0000F033F8FB7B0133FB73FB7BBA689A424B
:10030C00EED800BF00BF1037BD4680BD80B582B0AF
:10031C0000AF78600121786800F0A8F8022000F0A6
:10032C0059FB00BF0837BD4680BD80B582B000AF19
:10033C0078607B685B7843F00403DAB27B685A70B0
:10034C007B685B7843F00803DBB21946786800F0F1
:10035C008DF800BF0837BD4680BD80B582B000AFB8
:10036C0078600B46FB70FB7801221946786800F028
:10037C0005F800BF0837BD4680BD000080B582B0CF
:10038C0000AF78600B46FB701346BB70BB781A4607
:10039C0008210B4800F0B9FD00224FF40041094838
:1003AC0000F0B3FDFB781B09DBB2184600F022F815
:1003BC00FB78184600F01EF800BF0837BD4680BD1C
:1003CC00000C01400008014080B500AF01224FF441
:1003DC008051074800F099FD012000F0FBFA002243
:1003EC004FF48051024800F090FD00BF80BD00BF6B
:1003FC000008014080B582B000AF0346FB71FB7969
:10040C0003F00103DBB21A464FF40041164800F02A
:10041C007CFDFB795B08DBB203F00103DBB21A460F
:10042C004FF48041104800F070FDFB799B08DBB263
:10043C0003F00103DBB21A464FF400510A4800F0F6
:10044C0064FDFB79DB08DBB203F00103DBB21A4677
:10045C004FF48051044800F058FDFFF7B5FF00BF82
:10046C000837BD4680BD00BF000C014080B582B08E
:10047C0000AF78600B46FB70FB7800221946786859
:10048C00FFF77CFF00BF0837BD4680BD80B485B048
:10049C0000AFF860B9607A603B60BB68DAB2FB68A9
:1004AC001A717B68DAB2FB685A713B68DAB2FB6886
:1004BC009A71BB69DAB2FB68DA7100BF1437BD46BA
:1004CC0080BC704780B584B000AF78600B46FB7081
:1004DC001346BB700423FB60BB78FA689A4203D8BE
:1004EC00FB68DBB2013BBB707B68DB78BA789A4265
:1004FC0003D37B68DB78013BBB70BB787A68134411
:10050C001A79FB781344DBB25BB263F07F035BB206
:10051C00DBB219467868FFF7A9FF00BF1037BD465C
:10052C0080BD000080B586B000AF00F0F1F900F09E
:10053C006DF800F0B1F8381D002302221021FFF7EE
:10054C0007FE3B1D012200211846FFF7BBFF00F000
:10055C0037FA0346274AA2FB03235A0907F10C0377
:10056C002549184601F004F907F10C023B1D114610
:10057C001846FFF7A9FE0221204800F0AFFC034605
:10058C00002B20D004211D4800F0A8FC0346012BB1
:10059C0019D1012202211A4800F0B7FC00220821CF
:1005AC00174800F0B2FC3B1D002200211846FFF753
:1005BC0089FF3B1D13491846FFF786FE4FF49670D2
:1005CC0000F008FA14E0002202210D4800F09DFC16
:1005DC00012208210A4800F098FC3B1D0022002152
:1005EC001846FFF76FFF3B1D07491846FFF76CFED7
:1005FC00A7E700BF1F85EB5188200008000C0140C5
:10060C00000801408C2000089C20000880B590B0A8
:10061C0000AF07F1180328220021184601F0A0F8BA
:10062C003B1D00221A605A609A60DA601A6101233D
:10063C00BB614FF48033FB6100233B620123BB623F
:10064C0002237B634FF48033BB634FF4E013FB63F3
:10065C0007F11803184600F071FC0346002B01D07B
:10066C0000F094F80F237B600223BB600023FB6037
:10067C004FF480633B6100237B613B1D02211846D4
:10068C0000F0DEFE0346002B01D000F07FF800BF27
:10069C004037BD4680BD000080B588B000AF07F183
:1006AC00100300221A605A609A60DA60344B9B691E
:1006BC00334A43F010039361314B9B6903F01003F1
:1006CC00FB60FB682E4B9B692D4A43F02003936122
:1006DC002B4B9B6903F02003BB60BB68284B9B69C9
:1006EC00274A43F004039361254B9B6903F00403F1
:1006FC007B607B68224B9B69214A43F00803936122
:10070C001F4B9B6903F008033B603B68002249F2D6
:10071C000A011C4800F0F9FB00224FF208011A48AC
:10072C0000F0F3FB49F20A033B6101237B610023D8
:10073C00BB610223FB6107F110031946114800F05D
:10074C0051FA06233B6100237B610023BB6107F157
:10075C00100319460C4800F045FA4FF208033B61B0
:10076C0001237B610023BB610223FB6107F11003B2
:10077C001946054800F036FA00BF2037BD4680BD4B
:10078C000010024000080140000C014080B400AF92
:10079C0072B600BFFEE7000080B485B000AF154B09
:1007AC009B69144A43F001039361124B9B6903F05C
:1007BC000103BB60BB680F4BDB690E4A43F08053EF
:1007CC00D3610C4BDB6903F080537B607B680A4B75
:1007DC005B68FB60FB6823F0E063FB60FB6843F045
:1007EC000073FB60044AFB68536000BF1437BD46BE
:1007FC0080BC7047001002400000014080B400AF84
:10080C00FEE780B400AFFEE780B400AFFEE780B433
:10081C0000AFFEE780B400AFFEE780B400AF00BFCE
:10082C00BD4680BC704780B400AF00BFBD4680BCE5
:10083C00704780B400AF00BFBD4680BC704780B528
:10084C0000AF00F0ABF800BF80BD000080B586B0F3
:10085C0000AF7860144A154BD31A7B617B693B61FE
:10086C00134B1B68002B02D1114B124A1A60104B10
:10087C001A687B6813443A699A4207D200F046FF23
:10088C0003460C221A604FF0FF3309E0084B1B683B
:10089C00FB60074B1A687B681344054A1360FB68BE
:1008AC0018461837BD4680BD002800200004000003
:1008BC008C000020A800002080B400AF00BFBD4613
:1008CC0080BC70470C480D490D4A002302E0D458F7
:1008DC00C4500433C4188C42F9D30A4A0A4C00237E
:1008EC0001E013600432A242FBD3FFF7E5FF00F0F6
:1008FC0013FFFFF717FE7047000000207000002068
:10090C000C21000870000020A4000020FEE700006D
:10091C0080B500AF084B1B68074A43F01003136007
:10092C00032000F02BF90F2000F008F8FFF734FF3C
:10093C000023184680BD00BF0020024080B582B065
:10094C0000AF7860124B1A68124B1B7819464FF4A3
:10095C007A73B3FBF1F3B2FBF3F3184600F035F9FD
:10096C000346002B01D001230EE07B680F2B0AD825
:10097C00002279684FF0FF3000F00BF9064A7B68D3
:10098C001360002300E0012318460837BD4680BDE4
:10099C0000000020080000200400002080B400AFFC
:1009AC00054B1B781A46054B1B681344034A13600E
:1009BC0000BFBD4680BC704708000020900000209E
:1009CC0080B400AF024B1B681846BD4680BC704714
:1009DC009000002080B584B000AF7860FFF7F0FF86
:1009EC00B8607B68FB60FB68B3F1FF3F05D00A4B36
:1009FC001B781A46FB681344FB6000BFFFF7E0FF4F
:100A0C000246BB68D31AFA689A42F7D800BF00BFF7
:100A1C001037BD4680BD00BF0800002080B485B0F3
:100A2C0000AF78607B6803F00703FB600C4BDB685E
:100A3C00BB60BA684FF6FF031340BB60FB681A0239
:100A4C00BB68134343F0BF6343F40033BB60044AF9
:100A5C00BB68D36000BF1437BD4680BC704700BF75
:100A6C0000ED00E080B400AF044BDB681B0A03F020
:100A7C0007031846BD4680BC704700BF00ED00E080
:100A8C0080B483B000AF03463960FB7197F907302F
:100A9C00002B0ADB3B68DAB20C4997F907301201DC
:100AAC00D2B20B4483F800230AE03B68DAB208495F
:100ABC00FB7903F00F03043B1201D2B20B441A76FC
:100ACC0000BF0C37BD4680BC704700BF00E100E0A2
:100ADC0000ED00E080B489B000AFF860B9607A60D6
:100AEC00FB6803F00703FB61FB69C3F10703042BED
:100AFC0028BF0423BB61FB690433062B02D9FB69B5
:100B0C00033B00E000237B614FF0FF32BB6902FA2C
:100B1C0003F3DA43BB681A407B699A404FF0FF310C
:100B2C007B6901FA03F3D9437B680B4013431846E6
:100B3C002437BD4680BC704780B582B000AF78606A
:100B4C007B68013BB3F1807F01D301230FE00A4A9C
:100B5C007B68013B53600F214FF0FF30FFF790FF94
:100B6C00054B00229A60044B07221A60002318469A
:100B7C000837BD4680BD00BF10E000E080B582B0F4
:100B8C0000AF78607868FFF749FF00BF0837BD46B3
:100B9C0080BD80B586B000AF0346B9607A60FB7348
:100BAC0000237B61FFF75EFF78617A68B96878692A
:100BBC00FFF790FF024697F90F3011461846FFF7E2
:100BCC005FFF00BF1837BD4680BD80B582B000AF57
:100BDC0078607868FFF7B0FF034618460837BD46C3
:100BEC0080BD000080B48BB000AF7860396000230A
:100BFC007B6200233B6261E101227B6A02FA03F310
:100C0C00FB613B681B68FA691340BB61BA69FB69FD
:100C1C009A4240F050813B685B68974A93425ED0A1
:100C2C00954A934275D8954A934258D0934A934229
:100C3C006FD8934A934252D0914A934269D8914AC1
:100C4C0093424CD08F4A934263D88F4A934246D0FA
:100C5C008D4A93425DD8122B2AD8122B59D801A257
:100C6C0052F823F0EB0C0008C50C0008D70C000858
:100C7C00190D00081F0D00081F0D00081F0D00089E
:100C8C001F0D00081F0D00081F0D00081F0D000888
:100C9C001F0D00081F0D00081F0D00081F0D000878
:100CAC001F0D00081F0D0008CD0C0008E10C0008FA
:100CBC00764A934213D02CE03B68DB683B6229E018
:100CCC003B68DB6804333B6224E03B68DB68083339
:100CDC003B621FE03B68DB680C333B621AE03B680D
:100CEC009B68002B02D104233B6213E03B689B689A
:100CFC00012B05D108233B627B68FA691A6109E074
:100D0C0008233B627B68FA695A6103E000233B626B
:100D1C0000E000BFBB69FF2B01D87B6801E07B685A
:100D2C0004337B61BB69FF2B02D87B6A9B0002E01A
:100D3C007B6A083B9B003B617B691A680F213B690E
:100D4C0001FA03F3DB431A40396A3B6901FA03F3F6
:100D5C001A437B691A603B685B6803F08053002B75
:100D6C0000F0A9804A4B9B69494A43F00103936107
:100D7C00474B9B6903F00103BB60BB68454A7B6A28
:100D8C009B08023352F82330FB607B6A03F00303A9
:100D9C009B000F2202FA03F3DB43FA681340FB605B
:100DAC007B683D4A93420DD07B683C4A934207D006
:100DBC007B683B4A934201D1022304E0032302E007
:100DCC00012300E000237A6A02F0030292009340B0
:100DDC00FA681343FB602F497B6A9B080233FA685D
:100DEC0041F823203B685B6803F48033002B06D06A
:100DFC002C4B1A682B49BB6913430B6006E0294B3B
:100E0C001A68BB69DB43274913400B603B685B687E
:100E1C0003F40033002B06D0224B5A682149BB69DE
:100E2C0013434B6006E01F4B5A68BB69DB431D49FB
:100E3C0013404B603B685B6803F48013002B06D0B7
:100E4C00184B9A681749BB6913438B6006E0154B26
:100E5C009A68BB69DB43134913408B603B685B6842
:100E6C0003F40013002B1FD00E4BDA680D49BB693D
:100E7C001343CB601FE000BF0000321000003110A4
:100E8C0000002210000021100000121000001110B0
:100E9C00001002400000014000080140000C01401D
:100EAC0000100140000401400B4BDA68BB69DB43C6
:100EBC0009491340CB607B6A01337B623B681A683B
:100ECC007B6A22FA03F3002B7FF496AE00BF00BFBF
:100EDC002C37BD4680BC70470004014080B485B0FF
:100EEC0000AF78600B467B807B689A687B881340E8
:100EFC00002B02D00123FB7301E00023FB73FB7B6F
:100F0C0018461437BD4680BC704780B483B000AF20
:100F1C0078600B467B8013467B707B78002B03D06C
:100F2C007A887B681A6103E07B881A047B681A61F3
:100F3C0000BF0C37BD4680BC7047000080B586B042
:100F4C0000AF78607B68002B01D1012372E27B68D3
:100F5C001B6803F00103002B00F08780924B5B6849
:100F6C0003F00C03042B0CD08F4B5B6803F00C03C9
:100F7C00082B12D18C4B5B6803F48033B3F5803FA4
:100F8C000BD1894B1B6803F40033002B6CD07B68AE
:100F9C005B68002B68D101234CE27B685B68B3F57E
:100FAC00803F06D1804B1B687F4A43F4803313602B
:100FBC002EE07B685B68002B0CD17B4B1B687A4A5C
:100FCC0023F480331360784B1B68774A23F4802317
:100FDC0013601DE07B685B68B3F5A02F0CD1724BDE
:100FEC001B68714A43F4802313606F4B1B686E4A75
:100FFC0043F4803313600BE06B4B1B686A4A23F499
:10100C0080331360684B1B68674A23F4802313609A
:10101C007B685B68002B13D0FFF7D2FC386108E0CB
:10102C00FFF7CEFC02463B69D31A642B01D903238C
:10103C0000E25D4B1B6803F40033002BF0D014E08E
:10104C00FFF7BEFC386108E0FFF7BAFC02463B69CB
:10105C00D31A642B01D90323ECE1534B1B6803F423
:10106C000033002BF0D100E000BF7B681B6803F05D
:10107C000203002B63D04C4B5B6803F00C03002B7A
:10108C000BD0494B5B6803F00C03082B1CD1464B6F
:10109C005B6803F48033002B16D1434B1B6803F0C1
:1010AC000203002B05D07B681B69012B01D00123A7
:1010BC00C0E13D4B1B6823F0F8027B685B69DB00E9
:1010CC00394913430B603AE07B681B69002B20D035
:1010DC00364B01221A60FFF773FC386108E0FFF70A
:1010EC006FFC02463B69D31A022B01D90323A1E101
:1010FC002D4B1B6803F00203002BF0D02A4B1B680E
:10110C0023F0F8027B685B69DB00274913430B6013
:10111C0015E0264B00221A60FFF752FC386108E0FC
:10112C00FFF74EFC02463B69D31A022B01D903236D
:10113C0080E11D4B1B6803F00203002BF0D17B6890
:10114C001B6803F00803002B3AD07B689B69002BCB
:10115C0019D0174B01221A60FFF732FC386108E0F6
:10116C00FFF72EFC02463B69D31A022B01D903234D
:10117C0060E10D4B5B6A03F00203002BF0D0012001
:10118C0000F0A6FA1CE00A4B00221A60FFF718FCCC
:10119C0038610FE0FFF714FC02463B69D31A022BAF
:1011AC0008D9032346E100BF001002400000424270
:1011BC0080044242924B5B6A03F00203002BE9D19C
:1011CC007B681B6803F00403002B00F0A68000234F
:1011DC00FB758B4BDB6903F08053002B0DD1884BD7
:1011EC00DB69874A43F08053D361854BDB6903F09D
:1011FC008053BB60BB680123FB75824B1B6803F4F7
:10120C008073002B18D17F4B1B687E4A43F480738C
:10121C001360FFF7D5FB386108E0FFF7D1FB0246FE
:10122C003B69D31A642B01D9032303E1754B1B686B
:10123C0003F48073002BF0D07B68DB68012B06D1A4
:10124C006F4B1B6A6E4A43F0010313622DE07B68FF
:10125C00DB68002B0CD16A4B1B6A694A23F0010333
:10126C001362674B1B6A664A23F0040313621CE08B
:10127C007B68DB68052B0CD1614B1B6A604A43F021
:10128C00040313625E4B1B6A5D4A43F00103136255
:10129C000BE05B4B1B6A5A4A23F001031362584B59
:1012AC001B6A574A23F0040313627B68DB68002B2C
:1012BC0015D0FFF785FB38610AE0FFF781FB02468A
:1012CC003B69D31A41F28832934201D90323B1E02E
:1012DC004B4B1B6A03F00203002BEED014E0FFF71C
:1012EC006FFB38610AE0FFF76BFB02463B69D31AD0
:1012FC0041F28832934201D903239BE0404B1B6A95
:10130C0003F00203002BEED1FB7D012B05D13C4BEE
:10131C00DB693B4A23F08053D3617B68DB69002B8C
:10132C0000F08780364B5B6803F00C03082B61D010
:10133C007B68DB69022B46D1334B00221A60FFF726
:10134C003FFB386108E0FFF73BFB02463B69D31AD1
:10135C00022B01D903236DE0294B1B6803F00073AA
:10136C00002BF0D17B681B6AB3F5803F08D1244B6E
:10137C005B6823F400327B689B68214913434B6004
:10138C001F4B5B6823F474127B68196A7B685B6A79
:10139C000B431B4913434B601B4B01221A60FFF795
:1013AC000FFB386108E0FFF70BFB02463B69D31AD1
:1013BC00022B01D903233DE0114B1B6803F0007392
:1013CC00002BF0D035E0104B00221A60FFF7F8FA32
:1013DC00386108E0FFF7F4FA02463B69D31A022B96
:1013EC0001D9032326E0064B1B6803F00073002B86
:1013FC00F0D11EE07B68DB69012B07D1012319E0DA
:10140C000010024000700040600042420B4B5B68D1
:10141C00FB60FB6803F480327B681B6A9A4206D13E
:10142C00FB6803F470127B685B6A9A4201D001235B
:10143C0000E0002318461837BD4680BD001002405E
:10144C0080B584B000AF786039607B68002B01D127
:10145C000123D0E06A4B1B6803F007033A689A42F9
:10146C0010D9674B1B6823F0070265493B6813438F
:10147C000B60634B1B6803F007033A689A4201D078
:10148C000123B8E07B681B6803F00203002B20D01B
:10149C007B681B6803F00403002B05D0594B5B6879
:1014AC00584A43F4E06353607B681B6803F00803FD
:1014BC00002B05D0534B5B68524A43F46053536086
:1014CC00504B5B6823F0F0027B689B684D491343DB
:1014DC004B607B681B6803F00103002B40D07B68DA
:1014EC005B68012B07D1474B1B6803F40033002BBF
:1014FC0015D101237FE07B685B68022B07D1414B40
:10150C001B6803F00073002B09D1012373E03D4BE2
:10151C001B6803F00203002B01D101236BE0394B54
:10152C005B6823F003027B685B68364913434B60AE
:10153C00FFF746FAF8600AE0FFF742FA0246FB684A
:10154C00D31A41F28832934201D9032353E02D4B35
:10155C005B6803F00C027B685B689B009A42EBD1E2
:10156C00274B1B6803F007033A689A4210D2244BAE
:10157C001B6823F0070222493B6813430B60204B86
:10158C001B6803F007033A689A4201D0012332E04A
:10159C007B681B6803F00403002B08D0194B5B68B5
:1015AC0023F4E0627B68DB68164913434B607B686D
:1015BC001B6803F00803002B09D0124B5B6823F463
:1015CC0060527B681B69DB000E4913434B6000F0D3
:1015DC0021F802460B4B5B681B0903F00F030A4909
:1015EC00CB5C22FA03F3094A1360094B1B681846BB
:1015FC00FFF7A4F9002318461037BD4680BD00BF85
:10160C000020024000100240C02000080000002012
:10161C000400002090B48AB000AF294B3C1D0FCBC6
:10162C0084E80F0040F201233B800023FB61002380
:10163C00BB6100237B6200237B6100233B62214B57
:10164C005B68FB61FB6903F00C03042B02D0082BD5
:10165C0003D02BE01C4B3B622BE0FB699B0C03F093
:10166C000F0328333B4413F8243C7B61FB6903F4E0
:10167C008033002B12D0134B5B685B0C03F001031F
:10168C0028333B4413F8283CBB617B690E4A03FBAF
:10169C0002F2BB69B2FBF3F37B6204E07B690B4A99
:1016AC0002FB03F37B627B6A3B6202E0064B3B620C
:1016BC0000BF3B6A18462837BD4690BC704700BF38
:1016CC00B02000080010024000127A0000093D0012
:1016DC0080B485B000AF78600A4B1B680A4AA2FB45
:1016EC0003235B0A7A6802FB03F3FB6000BFFB6811
:1016FC005A1EFA60002BF9D100BF00BF1437BD464B
:10170C0080BC704700000020D34D6210014B18685C
:10171C00704700BF0C00002070B500260C4D0D4C1E
:10172C00641BA410A64209D100F09CFC00260A4DB3
:10173C000A4C641BA410A64205D170BD55F8043B9D
:10174C0098470136EEE755F8043B98470136F2E727
:10175C0004210008042100080421000808210008C5
:10176C0003460244934200D1704703F8011BF9E78A
:10177C000EB46FF0004100B59CB01DAB029006900A
:10178C00079104910848094953F8042B0591006806
:10179C0002A9019300F068F80022029B1A701CB099
:1017AC005DF804EB03B070470C0000200802FFFF4B
:1017BC002DE9F0478E6882469E420C4690461F46A5
:1017CC0038D88A8912F4906F32D0256809690133B0
:1017DC00A5EB010965694B4405EB450505EBD57592
:1017EC006D109D4238BF1D46530531D5294600F07A
:1017FC006FFB064650B90C234FF0FF30CAF800308F
:10180C00A38943F04003A381BDE8F0874A462169D0
:10181C0000F0CEFAA38923F4906343F08003A381F4
:10182C0026614E4426603E466561A5EB0905A56020
:10183C00BE4200D93E4632464146206800F0C6FA08
:10184C00A36800209B1BA360236833442360DBE761
:10185C002A4600F0B1FB06460028E1D1504621692A
:10186C0000F0CEFAC7E700002DE9F04F98468B89BF
:10187C0007461B060D4614469DB00ED50B6963B981
:10188C00402100F025FB2860286120B90C233B6027
:10189C004FF0FF30D1E040236B61002309932023EC
:1018AC008DF8293030234FF00109CDF80C80DFF88A
:1018BC00A4818DF82A3023469A4613F8012B0AB1DD
:1018CC00252AF9D1BAEB040B0BD05B4622462946EC
:1018DC003846FFF76DFF013000F0AA80099A5A4490
:1018EC0009929AF80030002B00F0A28000234FF0F0
:1018FC00FF32CDE905230AF1010A049307938DF811
:10190C0053301A935446052214F8011B514800F029
:10191C0041FA049AD8B9D00644BF20238DF853302D
:10192C00110744BF2B238DF853309AF800302A2B23
:10193C0015D0544600204FF00A0C079A214611F896
:10194C00013B303B092B4ED9B0B1079214E0A0EB10
:10195C00080309FA03F31343A2460493D2E7039B4B
:10196C00191D1B680391002BBBBF5B4242F00202A6
:10197C0007930793B8BF049223782E2B0CD163786E
:10198C002A2B35D1039B02341A1D1B680392002BA2
:10199C00B8BF4FF0FF330593DFF8BCA003225046CD
:1019AC00217800F0F7F940B14023A0EB0A0003FACC
:1019BC0000F0049B01340343049314F8011B06222A
:1019CC0026488DF8281000F0E5F9002838D0244B73
:1019DC001BBB039B073323F0070308330393099BBB
:1019EC003344099367E70C4601200CFB0232A5E750
:1019FC0000234FF00A0C194601340593204610F8C9
:101A0C00012B303A092A03D9002BC5D00591C3E725
:101A1C00044601230CFB0121F0E703AB00932A469B
:101A2C003846104B04A9AFF30080421C0646D6D1B1
:101A3C00AB895B063FF52CAF09981DB0BDE8F08F64
:101A4C0003AB00932A463846064B04A900F07CF8F9
:101A5C00EBE700BFD0200008D6200008DA200008F1
:101A6C0000000000BD1700082DE9F0471646994606
:101A7C008A680B6907469342B8BF1346336091F8E6
:101A8C0043200C46DDF820800AB101333360236813
:101A9C00990642BF336802333360256815F006059A
:101AAC0006D104F1190AE36832689B1AAB4228DCB0
:101ABC0094F84320131E226818BF012392062DD4DC
:101ACC004946384604F14302C047013020D0236810
:101ADC00E56803F00603042B18BF002532684FF0AD
:101AEC000006A36808BFAD1A226908BF25EAE57590
:101AFC009342C4BF9B1AED181A34B5421AD1002078
:101B0C0008E00123524649463846C047013003D10C
:101B1C004FF0FF30BDE8F0870135C4E73020E11805
:101B2C0081F843005A1C94F845102244023382F881
:101B3C004310C5E70123224649463846C0470130C9
:101B4C00E6D00136D9E700002DE9FF470F7E91461C
:101B5C00782F80460C469A460C9D01F1430207D81B
:101B6C00622F0AD8002F00F0D980582F00F0A480E3
:101B7C0004F1420584F842703AE0A7F16303152B97
:101B8C00F6D801A151F823F0ED1B0008011C000848
:101B9C007D1B00087D1B00087D1B00087D1B0008B9
:101BAC00011C00087D1B00087D1B00087D1B000824
:101BBC007D1B00080F1D0008311C0008F11C0008DB
:101BCC007D1B00087D1B0008311D00087D1B0008D3
:101BDC00311C00087D1B00087D1B0008F91C000847
:101BEC002B681A1D1B682A6004F1420584F84230E8
:101BFC000123A4E020682968060601F104030AD534
:101C0C000E682B60002E03DA2D23764284F84330C5
:101C1C000A235E4819E00E6810F0400F2B6018BFC5
:101C2C0036B2EFE72B682068191D2960010601D533
:101C3C001E6802E04606FBD51E886F2F0CBF0823DA
:101C4C000A235248002184F843106568002DA8BF70
:101C5C002168A560A4BF21F0040121600EB9002DFC
:101C6C004DD01546B6FBF3F103FB1167C75D05F8C4
:101C7C00017D3746BB420E46F4D9082B0BD12368A5
:101C8C00DE0708D5236961689942DEBF302305F869
:101C9C00013C05F1FF35521B22614B462146404663
:101CAC00CDF800A003AAFFF7DFFE01304CD14FF0B6
:101CBC00FF3004B0BDE8F087344881F845702968DE
:101CCC00236851F8046B29601D0614D5DF0744BF47
:101CDC0043F0200323601EB9236823F02003236004
:101CEC001023AFE7236843F02003236078232848B0
:101CFC0084F84530E3E7590648BFB6B2E6E7154627
:101D0C00BBE72B682668181D6169286035061B68BF
:101D1C0001D5196002E07006FBD519800023154629
:101D2C002361BAE72B6800211A1D2A601D686268BE
:101D3C00284600F02FF808B1401B606063682361EF
:101D4C00002384F84330A8E72A46494640462369D5
:101D5C00D0470130ABD023689B0713D4E068039BBA
:101D6C009842B8BF1846A4E701233246494640467C
:101D7C00D04701309BD00135E36803995B1AAB4225
:101D8C00F2DCEBE7002504F11906F5E7E120000889
:101D9C00F2200008034610B5C9B20244934218461B
:101DAC0001D1002003E0047801338C42F6D110BD40
:101DBC000A44914200F1FF3300D1704710B511F87D
:101DCC00014B914203F8014FF9D110BD884210B577
:101DDC0001EB020402D98442234607D8431EA142D8
:101DEC0008D011F8012B03F8012FF8E70146024443
:101DFC008A4200D110BD13F8014D02F8014DF7E7EE
:101E0C0038B50546002940D051F8043C0C1F002B76
:101E1C00B8BFE41800F010F91C4A136833B96360BA
:101E2C0014602846BDE8384000F00CB9A34208D92C
:101E3C00206821188B4201BF19685B680918216062
:101E4C00EDE71A465B680BB1A342FAD9116850183A
:101E5C00A0420BD120680144501883421160E0D19C
:101E6C0018685B68014411605360DAE702D90C23EF
:101E7C002B60D6E7206821188B4201BF19685B687C
:101E8C000918216063605460CBE738BD94000020D2
:101E9C0070B50E4E0C463168054611B900F0BCF811
:101EAC0030602146284600F0B7F8431C0AD0C41C09
:101EBC0024F00304A04207D0211A284600F0ACF805
:101ECC00013001D14FF0FF34204670BD9800002046
:101EDC002DE9F041CD1C25F0030508350C2D38BF3C
:101EEC000C25002D074601DBA94205D90C23002641
:101EFC003B603046BDE8F0812E4E00F09DF8336813
:101F0C001C4634BB29463846FFF7C2FF431C044627
:101F1C004DD134682646002E40D1236831463846D0
:101F2C0004EB030800F078F880453AD121680335BA
:101F3C006D1A25F0030508350C2D38BF0C253846D5
:101F4C002946FFF7A5FF01302BD023682B442360D3
:101F5C000EE02268521B1ED40B2A16D96119A3421B
:101F6C00256018BF5960636808BF316062514B60CF
:101F7C00384604F10B0600F065F826F00706231D21
:101F8C00F21AB6D09B1BA350B3E76268A3420CBFF6
:101F9C0032605A60ECE723466468B2E734467668F0
:101FAC00B9E70C2338463B6000F04CF8A1E72560FC
:101FBC00DEE700BF940000202DE9F0418046144676
:101FCC000E4621B91146BDE8F041FFF781BF2AB991
:101FDC00FFF716FF25462846BDE8F08100F038F8DB
:101FEC008442074602D8B4EB500F12D82146404623
:101FFC00FFF76EFF05460028EDD0BC422246314665
:10200C0028BF3A46FFF7D4FE31464046FFF7F8FEAC
:10201C00E1E73546DFE7000038B50023054D0446FF
:10202C0008462B60FEF712FC431C02D12B6803B14F
:10203C00236038BD9C000020014800F011B800BF9F
:10204C00A0000020014800F00CB800BFA000002048
:10205C0051F8043C181F002BBCBF0B58C01870471C
:10206C0070477047F8B500BFF8BC08BC9E46704777
:0C207C00F8B500BFF8BC08BC9E467047D9
:10208800256400005449434B455420494D5052455E
:1020980053534F0053454A414D2042454D20564920
:1020A8004E444F53000000000203040506070809C8
:1020B8000A0B0C0D0E0F10100000000000000000AD
:1020C8000102030406070809232D302B2000686C41
:1020D8004C00656667454647003031323334353643
:1020E800373839414243444546003031323334357C
:0C20F800363738396162636465660000A9
:04210400310100089D
:042108000D010008BD
:10210C000024F4001000000001000000100000206A
:10211C0000000000000000000000000000000000B3
:10212C0000000000000000000000000000000000A3
:10213C000000000000000000000000000000000093
:10214C000000000000000000000000000000000083
:10215C000000000000000000000000000000000073
:10216C000000000000000000000000000000000063
:04000005080008D116
:00000001FF
